{
  "_format": "hh-sol-artifact-1",
  "contractName": "DIMOStaking",
  "sourceName": "contracts/Staking.sol",
  "abi": [
    {
      "inputs": [],
      "stateMutability": "nonpayable",
      "type": "constructor"
    },
    {
      "inputs": [],
      "name": "AccessControlBadConfirmation",
      "type": "error"
    },
    {
      "inputs": [
        {
          "internalType": "uint48",
          "name": "schedule",
          "type": "uint48"
        }
      ],
      "name": "AccessControlEnforcedDefaultAdminDelay",
      "type": "error"
    },
    {
      "inputs": [],
      "name": "AccessControlEnforcedDefaultAdminRules",
      "type": "error"
    },
    {
      "inputs": [
        {
          "internalType": "address",
          "name": "defaultAdmin",
          "type": "address"
        }
      ],
      "name": "AccessControlInvalidDefaultAdmin",
      "type": "error"
    },
    {
      "inputs": [
        {
          "internalType": "address",
          "name": "account",
          "type": "address"
        },
        {
          "internalType": "bytes32",
          "name": "neededRole",
          "type": "bytes32"
        }
      ],
      "name": "AccessControlUnauthorizedAccount",
      "type": "error"
    },
    {
      "inputs": [
        {
          "internalType": "address",
          "name": "target",
          "type": "address"
        }
      ],
      "name": "AddressEmptyCode",
      "type": "error"
    },
    {
      "inputs": [
        {
          "internalType": "address",
          "name": "implementation",
          "type": "address"
        }
      ],
      "name": "ERC1967InvalidImplementation",
      "type": "error"
    },
    {
      "inputs": [],
      "name": "ERC1967NonPayable",
      "type": "error"
    },
    {
      "inputs": [
        {
          "internalType": "address",
          "name": "sender",
          "type": "address"
        },
        {
          "internalType": "uint256",
          "name": "tokenId",
          "type": "uint256"
        },
        {
          "internalType": "address",
          "name": "owner",
          "type": "address"
        }
      ],
      "name": "ERC721IncorrectOwner",
      "type": "error"
    },
    {
      "inputs": [
        {
          "internalType": "address",
          "name": "operator",
          "type": "address"
        },
        {
          "internalType": "uint256",
          "name": "tokenId",
          "type": "uint256"
        }
      ],
      "name": "ERC721InsufficientApproval",
      "type": "error"
    },
    {
      "inputs": [
        {
          "internalType": "address",
          "name": "approver",
          "type": "address"
        }
      ],
      "name": "ERC721InvalidApprover",
      "type": "error"
    },
    {
      "inputs": [
        {
          "internalType": "address",
          "name": "operator",
          "type": "address"
        }
      ],
      "name": "ERC721InvalidOperator",
      "type": "error"
    },
    {
      "inputs": [
        {
          "internalType": "address",
          "name": "owner",
          "type": "address"
        }
      ],
      "name": "ERC721InvalidOwner",
      "type": "error"
    },
    {
      "inputs": [
        {
          "internalType": "address",
          "name": "receiver",
          "type": "address"
        }
      ],
      "name": "ERC721InvalidReceiver",
      "type": "error"
    },
    {
      "inputs": [
        {
          "internalType": "address",
          "name": "sender",
          "type": "address"
        }
      ],
      "name": "ERC721InvalidSender",
      "type": "error"
    },
    {
      "inputs": [
        {
          "internalType": "uint256",
          "name": "tokenId",
          "type": "uint256"
        }
      ],
      "name": "ERC721NonexistentToken",
      "type": "error"
    },
    {
      "inputs": [],
      "name": "FailedInnerCall",
      "type": "error"
    },
    {
      "inputs": [],
      "name": "InvalidInitialization",
      "type": "error"
    },
    {
      "inputs": [
        {
          "internalType": "uint256",
          "name": "stakeId",
          "type": "uint256"
        }
      ],
      "name": "InvalidStakeId",
      "type": "error"
    },
    {
      "inputs": [
        {
          "internalType": "uint8",
          "name": "level",
          "type": "uint8"
        }
      ],
      "name": "InvalidStakingLevel",
      "type": "error"
    },
    {
      "inputs": [
        {
          "internalType": "uint256",
          "name": "vehicleId",
          "type": "uint256"
        }
      ],
      "name": "InvalidVehicleId",
      "type": "error"
    },
    {
      "inputs": [],
      "name": "NoActiveStaking",
      "type": "error"
    },
    {
      "inputs": [],
      "name": "NotInitializing",
      "type": "error"
    },
    {
      "inputs": [
        {
          "internalType": "uint8",
          "name": "bits",
          "type": "uint8"
        },
        {
          "internalType": "uint256",
          "name": "value",
          "type": "uint256"
        }
      ],
      "name": "SafeCastOverflowedUintDowncast",
      "type": "error"
    },
    {
      "inputs": [
        {
          "internalType": "uint256",
          "name": "stakeId",
          "type": "uint256"
        }
      ],
      "name": "TokensStillLocked",
      "type": "error"
    },
    {
      "inputs": [],
      "name": "UUPSUnauthorizedCallContext",
      "type": "error"
    },
    {
      "inputs": [
        {
          "internalType": "bytes32",
          "name": "slot",
          "type": "bytes32"
        }
      ],
      "name": "UUPSUnsupportedProxiableUUID",
      "type": "error"
    },
    {
      "inputs": [
        {
          "internalType": "address",
          "name": "addr",
          "type": "address"
        },
        {
          "internalType": "uint256",
          "name": "vehicleId",
          "type": "uint256"
        }
      ],
      "name": "Unauthorized",
      "type": "error"
    },
    {
      "inputs": [
        {
          "internalType": "uint256",
          "name": "vehicleId",
          "type": "uint256"
        }
      ],
      "name": "VehicleAlreadyAttached",
      "type": "error"
    },
    {
      "anonymous": false,
      "inputs": [
        {
          "indexed": true,
          "internalType": "address",
          "name": "owner",
          "type": "address"
        },
        {
          "indexed": true,
          "internalType": "address",
          "name": "approved",
          "type": "address"
        },
        {
          "indexed": true,
          "internalType": "uint256",
          "name": "tokenId",
          "type": "uint256"
        }
      ],
      "name": "Approval",
      "type": "event"
    },
    {
      "anonymous": false,
      "inputs": [
        {
          "indexed": true,
          "internalType": "address",
          "name": "owner",
          "type": "address"
        },
        {
          "indexed": true,
          "internalType": "address",
          "name": "operator",
          "type": "address"
        },
        {
          "indexed": false,
          "internalType": "bool",
          "name": "approved",
          "type": "bool"
        }
      ],
      "name": "ApprovalForAll",
      "type": "event"
    },
    {
      "anonymous": false,
      "inputs": [],
      "name": "DefaultAdminDelayChangeCanceled",
      "type": "event"
    },
    {
      "anonymous": false,
      "inputs": [
        {
          "indexed": false,
          "internalType": "uint48",
          "name": "newDelay",
          "type": "uint48"
        },
        {
          "indexed": false,
          "internalType": "uint48",
          "name": "effectSchedule",
          "type": "uint48"
        }
      ],
      "name": "DefaultAdminDelayChangeScheduled",
      "type": "event"
    },
    {
      "anonymous": false,
      "inputs": [],
      "name": "DefaultAdminTransferCanceled",
      "type": "event"
    },
    {
      "anonymous": false,
      "inputs": [
        {
          "indexed": true,
          "internalType": "address",
          "name": "newAdmin",
          "type": "address"
        },
        {
          "indexed": false,
          "internalType": "uint48",
          "name": "acceptSchedule",
          "type": "uint48"
        }
      ],
      "name": "DefaultAdminTransferScheduled",
      "type": "event"
    },
    {
      "anonymous": false,
      "inputs": [
        {
          "indexed": false,
          "internalType": "uint64",
          "name": "version",
          "type": "uint64"
        }
      ],
      "name": "Initialized",
      "type": "event"
    },
    {
      "anonymous": false,
      "inputs": [
        {
          "indexed": true,
          "internalType": "bytes32",
          "name": "role",
          "type": "bytes32"
        },
        {
          "indexed": true,
          "internalType": "bytes32",
          "name": "previousAdminRole",
          "type": "bytes32"
        },
        {
          "indexed": true,
          "internalType": "bytes32",
          "name": "newAdminRole",
          "type": "bytes32"
        }
      ],
      "name": "RoleAdminChanged",
      "type": "event"
    },
    {
      "anonymous": false,
      "inputs": [
        {
          "indexed": true,
          "internalType": "bytes32",
          "name": "role",
          "type": "bytes32"
        },
        {
          "indexed": true,
          "internalType": "address",
          "name": "account",
          "type": "address"
        },
        {
          "indexed": true,
          "internalType": "address",
          "name": "sender",
          "type": "address"
        }
      ],
      "name": "RoleGranted",
      "type": "event"
    },
    {
      "anonymous": false,
      "inputs": [
        {
          "indexed": true,
          "internalType": "bytes32",
          "name": "role",
          "type": "bytes32"
        },
        {
          "indexed": true,
          "internalType": "address",
          "name": "account",
          "type": "address"
        },
        {
          "indexed": true,
          "internalType": "address",
          "name": "sender",
          "type": "address"
        }
      ],
      "name": "RoleRevoked",
      "type": "event"
    },
    {
      "anonymous": false,
      "inputs": [
        {
          "indexed": true,
          "internalType": "address",
          "name": "user",
          "type": "address"
        },
        {
          "indexed": true,
          "internalType": "uint256",
          "name": "stakeId",
          "type": "uint256"
        },
        {
          "indexed": true,
          "internalType": "address",
          "name": "stakingBeacon",
          "type": "address"
        },
        {
          "indexed": false,
          "internalType": "uint8",
          "name": "level",
          "type": "uint8"
        },
        {
          "indexed": false,
          "internalType": "uint256",
          "name": "amount",
          "type": "uint256"
        },
        {
          "indexed": false,
          "internalType": "uint256",
          "name": "lockEndTime",
          "type": "uint256"
        },
        {
          "indexed": false,
          "internalType": "uint256",
          "name": "points",
          "type": "uint256"
        }
      ],
      "name": "Staked",
      "type": "event"
    },
    {
      "anonymous": false,
      "inputs": [
        {
          "indexed": true,
          "internalType": "address",
          "name": "user",
          "type": "address"
        },
        {
          "indexed": true,
          "internalType": "uint256",
          "name": "stakeId",
          "type": "uint256"
        },
        {
          "indexed": false,
          "internalType": "uint256",
          "name": "newLockEndTime",
          "type": "uint256"
        },
        {
          "indexed": false,
          "internalType": "uint256",
          "name": "points",
          "type": "uint256"
        }
      ],
      "name": "StakingExtended",
      "type": "event"
    },
    {
      "anonymous": false,
      "inputs": [
        {
          "indexed": true,
          "internalType": "address",
          "name": "from",
          "type": "address"
        },
        {
          "indexed": true,
          "internalType": "address",
          "name": "to",
          "type": "address"
        },
        {
          "indexed": true,
          "internalType": "uint256",
          "name": "tokenId",
          "type": "uint256"
        }
      ],
      "name": "Transfer",
      "type": "event"
    },
    {
      "anonymous": false,
      "inputs": [
        {
          "indexed": true,
          "internalType": "address",
          "name": "implementation",
          "type": "address"
        }
      ],
      "name": "Upgraded",
      "type": "event"
    },
    {
      "anonymous": false,
      "inputs": [
        {
          "indexed": true,
          "internalType": "address",
          "name": "user",
          "type": "address"
        },
        {
          "indexed": true,
          "internalType": "uint256",
          "name": "stakeId",
          "type": "uint256"
        },
        {
          "indexed": true,
          "internalType": "uint256",
          "name": "vehicleId",
          "type": "uint256"
        }
      ],
      "name": "VehicleAttached",
      "type": "event"
    },
    {
      "anonymous": false,
      "inputs": [
        {
          "indexed": true,
          "internalType": "address",
          "name": "user",
          "type": "address"
        },
        {
          "indexed": true,
          "internalType": "uint256",
          "name": "stakeId",
          "type": "uint256"
        },
        {
          "indexed": true,
          "internalType": "uint256",
          "name": "vehicleId",
          "type": "uint256"
        }
      ],
      "name": "VehicleDetached",
      "type": "event"
    },
    {
      "anonymous": false,
      "inputs": [
        {
          "indexed": true,
          "internalType": "address",
          "name": "user",
          "type": "address"
        },
        {
          "indexed": true,
          "internalType": "uint256",
          "name": "stakeId",
          "type": "uint256"
        },
        {
          "indexed": false,
          "internalType": "uint256",
          "name": "amount",
          "type": "uint256"
        },
        {
          "indexed": false,
          "internalType": "uint256",
          "name": "points",
          "type": "uint256"
        }
      ],
      "name": "Withdrawn",
      "type": "event"
    },
    {
      "inputs": [],
      "name": "DEFAULT_ADMIN_ROLE",
      "outputs": [
        {
          "internalType": "bytes32",
          "name": "",
          "type": "bytes32"
        }
      ],
      "stateMutability": "view",
      "type": "function"
    },
    {
      "inputs": [],
      "name": "UPGRADE_INTERFACE_VERSION",
      "outputs": [
        {
          "internalType": "string",
          "name": "",
          "type": "string"
        }
      ],
      "stateMutability": "view",
      "type": "function"
    },
    {
      "inputs": [],
      "name": "acceptDefaultAdminTransfer",
      "outputs": [],
      "stateMutability": "nonpayable",
      "type": "function"
    },
    {
      "inputs": [
        {
          "internalType": "address",
          "name": "to",
          "type": "address"
        },
        {
          "internalType": "uint256",
          "name": "tokenId",
          "type": "uint256"
        }
      ],
      "name": "approve",
      "outputs": [],
      "stateMutability": "nonpayable",
      "type": "function"
    },
    {
      "inputs": [
        {
          "internalType": "uint256",
          "name": "stakeId",
          "type": "uint256"
        },
        {
          "internalType": "uint256",
          "name": "vehicleId",
          "type": "uint256"
        }
      ],
      "name": "attachVehicle",
      "outputs": [],
      "stateMutability": "nonpayable",
      "type": "function"
    },
    {
      "inputs": [
        {
          "internalType": "address",
          "name": "owner",
          "type": "address"
        }
      ],
      "name": "balanceOf",
      "outputs": [
        {
          "internalType": "uint256",
          "name": "",
          "type": "uint256"
        }
      ],
      "stateMutability": "view",
      "type": "function"
    },
    {
      "inputs": [
        {
          "internalType": "address",
          "name": "newAdmin",
          "type": "address"
        }
      ],
      "name": "beginDefaultAdminTransfer",
      "outputs": [],
      "stateMutability": "nonpayable",
      "type": "function"
    },
    {
      "inputs": [],
      "name": "cancelDefaultAdminTransfer",
      "outputs": [],
      "stateMutability": "nonpayable",
      "type": "function"
    },
    {
      "inputs": [
        {
          "internalType": "uint48",
          "name": "newDelay",
          "type": "uint48"
        }
      ],
      "name": "changeDefaultAdminDelay",
      "outputs": [],
      "stateMutability": "nonpayable",
      "type": "function"
    },
    {
      "inputs": [],
      "name": "defaultAdmin",
      "outputs": [
        {
          "internalType": "address",
          "name": "",
          "type": "address"
        }
      ],
      "stateMutability": "view",
      "type": "function"
    },
    {
      "inputs": [],
      "name": "defaultAdminDelay",
      "outputs": [
        {
          "internalType": "uint48",
          "name": "",
          "type": "uint48"
        }
      ],
      "stateMutability": "view",
      "type": "function"
    },
    {
      "inputs": [],
      "name": "defaultAdminDelayIncreaseWait",
      "outputs": [
        {
          "internalType": "uint48",
          "name": "",
          "type": "uint48"
        }
      ],
      "stateMutability": "view",
      "type": "function"
    },
    {
      "inputs": [
        {
          "internalType": "address",
          "name": "delegatee",
          "type": "address"
        }
      ],
      "name": "delegate",
      "outputs": [],
      "stateMutability": "nonpayable",
      "type": "function"
    },
    {
      "inputs": [
        {
          "internalType": "uint256",
          "name": "vehicleId",
          "type": "uint256"
        }
      ],
      "name": "detachVehicle",
      "outputs": [],
      "stateMutability": "nonpayable",
      "type": "function"
    },
    {
      "inputs": [],
      "name": "dimoToken",
      "outputs": [
        {
          "internalType": "address",
          "name": "",
          "type": "address"
        }
      ],
      "stateMutability": "view",
      "type": "function"
    },
    {
      "inputs": [
        {
          "internalType": "uint256",
          "name": "stakeId",
          "type": "uint256"
        }
      ],
      "name": "extendStaking",
      "outputs": [],
      "stateMutability": "nonpayable",
      "type": "function"
    },
    {
      "inputs": [
        {
          "internalType": "uint256",
          "name": "tokenId",
          "type": "uint256"
        }
      ],
      "name": "getApproved",
      "outputs": [
        {
          "internalType": "address",
          "name": "",
          "type": "address"
        }
      ],
      "stateMutability": "view",
      "type": "function"
    },
    {
      "inputs": [
        {
          "internalType": "uint256",
          "name": "vehicleId",
          "type": "uint256"
        }
      ],
      "name": "getBaselinePoints",
      "outputs": [
        {
          "internalType": "uint256",
          "name": "",
          "type": "uint256"
        }
      ],
      "stateMutability": "view",
      "type": "function"
    },
    {
      "inputs": [
        {
          "internalType": "bytes32",
          "name": "role",
          "type": "bytes32"
        }
      ],
      "name": "getRoleAdmin",
      "outputs": [
        {
          "internalType": "bytes32",
          "name": "",
          "type": "bytes32"
        }
      ],
      "stateMutability": "view",
      "type": "function"
    },
    {
      "inputs": [
        {
          "internalType": "bytes32",
          "name": "role",
          "type": "bytes32"
        },
        {
          "internalType": "address",
          "name": "account",
          "type": "address"
        }
      ],
      "name": "grantRole",
      "outputs": [],
      "stateMutability": "nonpayable",
      "type": "function"
    },
    {
      "inputs": [
        {
          "internalType": "bytes32",
          "name": "role",
          "type": "bytes32"
        },
        {
          "internalType": "address",
          "name": "account",
          "type": "address"
        }
      ],
      "name": "hasRole",
      "outputs": [
        {
          "internalType": "bool",
          "name": "",
          "type": "bool"
        }
      ],
      "stateMutability": "view",
      "type": "function"
    },
    {
      "inputs": [
        {
          "internalType": "address",
          "name": "dimoToken_",
          "type": "address"
        },
        {
          "internalType": "address",
          "name": "vehicleIdProxy_",
          "type": "address"
        }
      ],
      "name": "initialize",
      "outputs": [],
      "stateMutability": "nonpayable",
      "type": "function"
    },
    {
      "inputs": [
        {
          "internalType": "address",
          "name": "owner",
          "type": "address"
        },
        {
          "internalType": "address",
          "name": "operator",
          "type": "address"
        }
      ],
      "name": "isApprovedForAll",
      "outputs": [
        {
          "internalType": "bool",
          "name": "",
          "type": "bool"
        }
      ],
      "stateMutability": "view",
      "type": "function"
    },
    {
      "inputs": [],
      "name": "name",
      "outputs": [
        {
          "internalType": "string",
          "name": "",
          "type": "string"
        }
      ],
      "stateMutability": "view",
      "type": "function"
    },
    {
      "inputs": [],
      "name": "owner",
      "outputs": [
        {
          "internalType": "address",
          "name": "",
          "type": "address"
        }
      ],
      "stateMutability": "view",
      "type": "function"
    },
    {
      "inputs": [
        {
          "internalType": "uint256",
          "name": "tokenId",
          "type": "uint256"
        }
      ],
      "name": "ownerOf",
      "outputs": [
        {
          "internalType": "address",
          "name": "",
          "type": "address"
        }
      ],
      "stateMutability": "view",
      "type": "function"
    },
    {
      "inputs": [],
      "name": "pendingDefaultAdmin",
      "outputs": [
        {
          "internalType": "address",
          "name": "newAdmin",
          "type": "address"
        },
        {
          "internalType": "uint48",
          "name": "schedule",
          "type": "uint48"
        }
      ],
      "stateMutability": "view",
      "type": "function"
    },
    {
      "inputs": [],
      "name": "pendingDefaultAdminDelay",
      "outputs": [
        {
          "internalType": "uint48",
          "name": "newDelay",
          "type": "uint48"
        },
        {
          "internalType": "uint48",
          "name": "schedule",
          "type": "uint48"
        }
      ],
      "stateMutability": "view",
      "type": "function"
    },
    {
      "inputs": [],
      "name": "proxiableUUID",
      "outputs": [
        {
          "internalType": "bytes32",
          "name": "",
          "type": "bytes32"
        }
      ],
      "stateMutability": "view",
      "type": "function"
    },
    {
      "inputs": [
        {
          "internalType": "bytes32",
          "name": "role",
          "type": "bytes32"
        },
        {
          "internalType": "address",
          "name": "account",
          "type": "address"
        }
      ],
      "name": "renounceRole",
      "outputs": [],
      "stateMutability": "nonpayable",
      "type": "function"
    },
    {
      "inputs": [
        {
          "internalType": "bytes32",
          "name": "role",
          "type": "bytes32"
        },
        {
          "internalType": "address",
          "name": "account",
          "type": "address"
        }
      ],
      "name": "revokeRole",
      "outputs": [],
      "stateMutability": "nonpayable",
      "type": "function"
    },
    {
      "inputs": [],
      "name": "rollbackDefaultAdminDelay",
      "outputs": [],
      "stateMutability": "nonpayable",
      "type": "function"
    },
    {
      "inputs": [
        {
          "internalType": "address",
          "name": "from",
          "type": "address"
        },
        {
          "internalType": "address",
          "name": "to",
          "type": "address"
        },
        {
          "internalType": "uint256",
          "name": "tokenId",
          "type": "uint256"
        }
      ],
      "name": "safeTransferFrom",
      "outputs": [],
      "stateMutability": "nonpayable",
      "type": "function"
    },
    {
      "inputs": [
        {
          "internalType": "address",
          "name": "from",
          "type": "address"
        },
        {
          "internalType": "address",
          "name": "to",
          "type": "address"
        },
        {
          "internalType": "uint256",
          "name": "tokenId",
          "type": "uint256"
        },
        {
          "internalType": "bytes",
          "name": "data",
          "type": "bytes"
        }
      ],
      "name": "safeTransferFrom",
      "outputs": [],
      "stateMutability": "nonpayable",
      "type": "function"
    },
    {
      "inputs": [
        {
          "internalType": "address",
          "name": "operator",
          "type": "address"
        },
        {
          "internalType": "bool",
          "name": "approved",
          "type": "bool"
        }
      ],
      "name": "setApprovalForAll",
      "outputs": [],
      "stateMutability": "nonpayable",
      "type": "function"
    },
    {
      "inputs": [
        {
          "internalType": "uint8",
          "name": "level",
          "type": "uint8"
        },
        {
          "internalType": "uint256",
          "name": "vehicleId",
          "type": "uint256"
        }
      ],
      "name": "stake",
      "outputs": [],
      "stateMutability": "nonpayable",
      "type": "function"
    },
    {
      "inputs": [
        {
          "internalType": "uint256",
          "name": "stakeId",
          "type": "uint256"
        }
      ],
      "name": "stakeIdToStake",
      "outputs": [
        {
          "internalType": "address",
          "name": "",
          "type": "address"
        }
      ],
      "stateMutability": "view",
      "type": "function"
    },
    {
      "inputs": [
        {
          "internalType": "uint256",
          "name": "stakeId",
          "type": "uint256"
        }
      ],
      "name": "stakeIdToStakingData",
      "outputs": [
        {
          "components": [
            {
              "internalType": "uint8",
              "name": "level",
              "type": "uint8"
            },
            {
              "internalType": "uint256",
              "name": "amount",
              "type": "uint256"
            },
            {
              "internalType": "uint256",
              "name": "lockEndTime",
              "type": "uint256"
            },
            {
              "internalType": "uint256",
              "name": "vehicleId",
              "type": "uint256"
            }
          ],
          "internalType": "struct StakingData",
          "name": "",
          "type": "tuple"
        }
      ],
      "stateMutability": "view",
      "type": "function"
    },
    {
      "inputs": [
        {
          "internalType": "address",
          "name": "user",
          "type": "address"
        }
      ],
      "name": "stakerToStake",
      "outputs": [
        {
          "internalType": "address",
          "name": "",
          "type": "address"
        }
      ],
      "stateMutability": "view",
      "type": "function"
    },
    {
      "inputs": [
        {
          "internalType": "uint8",
          "name": "level",
          "type": "uint8"
        }
      ],
      "name": "stakingLevels",
      "outputs": [
        {
          "components": [
            {
              "internalType": "uint256",
              "name": "amount",
              "type": "uint256"
            },
            {
              "internalType": "uint256",
              "name": "lockPeriod",
              "type": "uint256"
            },
            {
              "internalType": "uint256",
              "name": "points",
              "type": "uint256"
            }
          ],
          "internalType": "struct DIMOStaking.StakingLevel",
          "name": "",
          "type": "tuple"
        }
      ],
      "stateMutability": "view",
      "type": "function"
    },
    {
      "inputs": [
        {
          "internalType": "bytes4",
          "name": "interfaceId",
          "type": "bytes4"
        }
      ],
      "name": "supportsInterface",
      "outputs": [
        {
          "internalType": "bool",
          "name": "",
          "type": "bool"
        }
      ],
      "stateMutability": "view",
      "type": "function"
    },
    {
      "inputs": [],
      "name": "symbol",
      "outputs": [
        {
          "internalType": "string",
          "name": "",
          "type": "string"
        }
      ],
      "stateMutability": "view",
      "type": "function"
    },
    {
      "inputs": [
        {
          "internalType": "uint256",
          "name": "tokenId",
          "type": "uint256"
        }
      ],
      "name": "tokenURI",
      "outputs": [
        {
          "internalType": "string",
          "name": "",
          "type": "string"
        }
      ],
      "stateMutability": "view",
      "type": "function"
    },
    {
      "inputs": [
        {
          "internalType": "address",
          "name": "from",
          "type": "address"
        },
        {
          "internalType": "address",
          "name": "to",
          "type": "address"
        },
        {
          "internalType": "uint256",
          "name": "tokenId",
          "type": "uint256"
        }
      ],
      "name": "transferFrom",
      "outputs": [],
      "stateMutability": "nonpayable",
      "type": "function"
    },
    {
      "inputs": [
        {
          "internalType": "uint256",
          "name": "stakeId",
          "type": "uint256"
        },
        {
          "internalType": "uint8",
          "name": "level",
          "type": "uint8"
        },
        {
          "internalType": "uint256",
          "name": "vehicleId",
          "type": "uint256"
        }
      ],
      "name": "upgradeStake",
      "outputs": [],
      "stateMutability": "nonpayable",
      "type": "function"
    },
    {
      "inputs": [
        {
          "internalType": "address",
          "name": "newImplementation",
          "type": "address"
        },
        {
          "internalType": "bytes",
          "name": "data",
          "type": "bytes"
        }
      ],
      "name": "upgradeToAndCall",
      "outputs": [],
      "stateMutability": "payable",
      "type": "function"
    },
    {
      "inputs": [],
      "name": "vehicleIdProxy",
      "outputs": [
        {
          "internalType": "address",
          "name": "",
          "type": "address"
        }
      ],
      "stateMutability": "view",
      "type": "function"
    },
    {
      "inputs": [
        {
          "internalType": "uint256",
          "name": "vehicleId",
          "type": "uint256"
        }
      ],
      "name": "vehicleIdToStakeId",
      "outputs": [
        {
          "internalType": "uint256",
          "name": "",
          "type": "uint256"
        }
      ],
      "stateMutability": "view",
      "type": "function"
    },
    {
      "inputs": [
        {
          "internalType": "uint256",
          "name": "stakeId",
          "type": "uint256"
        }
      ],
      "name": "withdraw",
      "outputs": [],
      "stateMutability": "nonpayable",
      "type": "function"
    },
    {
      "inputs": [
        {
          "internalType": "uint256[]",
          "name": "stakeIds",
          "type": "uint256[]"
        }
      ],
      "name": "withdraw",
      "outputs": [],
      "stateMutability": "nonpayable",
      "type": "function"
    }
  ],
  "bytecode": "0x60a06040523060805234801561001457600080fd5b5061001d610022565b6100d4565b7ff0c57e16840df040f15088dc2f81fe391c3923bec73e23a9662efc9c229c6a00805468010000000000000000900460ff16156100725760405163f92ee8a960e01b815260040160405180910390fd5b80546001600160401b03908116146100d15780546001600160401b0319166001600160401b0390811782556040519081527fc7f505b2f371ae2175ee4913f4499e1f2633a7b5936321eed1cdaeb6115181d29060200160405180910390a15b50565b608051614d026100fd60003960008181612cef01528181612d180152612e640152614d026000f3fe6080604052600436106102c95760003560e01c80636708800911610175578063ad60dafb116100dc578063cf6eefb711610095578063d7dd717b1161006f578063d7dd717b146108e8578063dd752e5514610908578063e985e9c514610928578063ef60f4cf1461094857600080fd5b8063cf6eefb714610878578063d547741f146108b3578063d602b9fd146108d357600080fd5b8063ad60dafb146107ce578063b88d4fde146107ee578063bcca09251461080e578063c87b56dd1461082e578063cc8463c81461084e578063cefc14291461086357600080fd5b806395d89b411161012e57806395d89b41146106ff578063983d95ce14610714578063a1eda53c14610734578063a217fddf14610768578063a22cb4651461077d578063ad3cb1cc1461079d57600080fd5b8063670880091461061f57806370a0823114610675578063710933271461069557806384ef8ffc146106b55780638da5cb5b146106ca57806391d14854146106df57600080fd5b80632f2ff15d116102345780634f1ef286116101ed5780635c19a95c116101c75780635c19a95c1461059f578063634e93da146105bf5780636352211e146105df578063649a5ec7146105ff57600080fd5b80634f1ef286146105575780634fc4b4e91461056a57806352d1902d1461058a57600080fd5b80632f2ff15d1461048057806336568abe146104a057806340c05794146104c057806342842e0e146104d5578063468fd57e146104f5578063485cc9551461053757600080fd5b80630aa6220b116102865780630aa6220b146103bd57806321821801146103d2578063229f39f0146103f257806323b872dd14610420578063248a9ca3146104405780632e1a7d4d1461046057600080fd5b806301ffc9a7146102ce578063022d63fb146103035780630524f28c1461032c57806306fdde0314610359578063081812fc1461037b578063095ea7b31461039b575b600080fd5b3480156102da57600080fd5b506102ee6102e9366004613e58565b610968565b60405190151581526020015b60405180910390f35b34801561030f57600080fd5b50620697805b60405165ffffffffffff90911681526020016102fa565b34801561033857600080fd5b50610341610979565b6040516001600160a01b0390911681526020016102fa565b34801561036557600080fd5b5061036e610992565b6040516102fa9190613ec5565b34801561038757600080fd5b50610341610396366004613ed8565b610a36565b3480156103a757600080fd5b506103bb6103b6366004613f06565b610a4b565b005b3480156103c957600080fd5b506103bb610a5a565b3480156103de57600080fd5b506103bb6103ed366004613f48565b610a70565b3480156103fe57600080fd5b5061041261040d366004613ed8565b610f2d565b6040519081526020016102fa565b34801561042c57600080fd5b506103bb61043b366004613f7e565b611052565b34801561044c57600080fd5b5061041261045b366004613ed8565b6112be565b34801561046c57600080fd5b506103bb61047b366004613ed8565b6112e0565b34801561048c57600080fd5b506103bb61049b366004613fae565b6114dd565b3480156104ac57600080fd5b506103bb6104bb366004613fae565b611505565b3480156104cc57600080fd5b506103416115c9565b3480156104e157600080fd5b506103bb6104f0366004613f7e565b6115e5565b34801561050157600080fd5b50610515610510366004613fde565b611600565b60408051825181526020808401519082015291810151908201526060016102fa565b34801561054357600080fd5b506103bb610552366004613ff9565b611673565b6103bb6105653660046140cc565b611911565b34801561057657600080fd5b5061034161058536600461411c565b61192c565b34801561059657600080fd5b5061041261195c565b3480156105ab57600080fd5b506103bb6105ba36600461411c565b611979565b3480156105cb57600080fd5b506103bb6105da36600461411c565b611a1f565b3480156105eb57600080fd5b506103416105fa366004613ed8565b611a33565b34801561060b57600080fd5b506103bb61061a366004614139565b611a3e565b34801561062b57600080fd5b5061063f61063a366004613ed8565b611a52565b6040516102fa9190815160ff16815260208083015190820152604080830151908201526060918201519181019190915260800190565b34801561068157600080fd5b5061041261069036600461411c565b611ad1565b3480156106a157600080fd5b506103416106b0366004613ed8565b611b2d565b3480156106c157600080fd5b50610341611b54565b3480156106d657600080fd5b50610341611b70565b3480156106eb57600080fd5b506102ee6106fa366004613fae565b611b7f565b34801561070b57600080fd5b5061036e611bb7565b34801561072057600080fd5b506103bb61072f366004614161565b611bf6565b34801561074057600080fd5b50610749611e58565b6040805165ffffffffffff9384168152929091166020830152016102fa565b34801561077457600080fd5b50610412600081565b34801561078957600080fd5b506103bb6107983660046141e6565b611ecb565b3480156107a957600080fd5b5061036e604051806040016040528060058152602001640352e302e360dc1b81525081565b3480156107da57600080fd5b506103bb6107e9366004614214565b611ed6565b3480156107fa57600080fd5b506103bb610809366004614236565b6120f5565b34801561081a57600080fd5b50610412610829366004613ed8565b612112565b34801561083a57600080fd5b5061036e610849366004613ed8565b612130565b34801561085a57600080fd5b506103156121a5565b34801561086f57600080fd5b506103bb612223565b34801561088457600080fd5b5061088d612263565b604080516001600160a01b03909316835265ffffffffffff9091166020830152016102fa565b3480156108bf57600080fd5b506103bb6108ce366004613fae565b612291565b3480156108df57600080fd5b506103bb6122b9565b3480156108f457600080fd5b506103bb610903366004613ed8565b6122cc565b34801561091457600080fd5b506103bb6109233660046142a2565b6124a5565b34801561093457600080fd5b506102ee610943366004613ff9565b6128eb565b34801561095457600080fd5b506103bb610963366004613ed8565b612938565b600061097382612a56565b92915050565b6000610983612a7b565b546001600160a01b0316919050565b600080516020614c2d83398151915280546060919081906109b2906142be565b80601f01602080910402602001604051908101604052809291908181526020018280546109de906142be565b8015610a2b5780601f10610a0057610100808354040283529160200191610a2b565b820191906000526020600020905b815481529060010190602001808311610a0e57829003601f168201915b505050505091505090565b6000610a4182612a9f565b5061097382612ad7565b610a56828233612b11565b5050565b6000610a6581612b1e565b610a6d612b28565b50565b610a7983611a33565b6001600160a01b0316336001600160a01b031614610ab2576040516333200a8b60e11b8152600481018490526024015b60405180910390fd5b6000610abc612a7b565b336000908152600682016020908152604080832054888452600485018352928190208151608081018352815460ff90811682526001830154948201949094526002808301549382019390935260039091015460608201529394506001600160a01b0390921692919086161180610b395750805160ff808716911610155b15610b5c5760405163064fa3d560e41b815260ff86166004820152602401610aa9565b60ff8086166000908152600385016020818152604080842081516060810183528154815260018201548185015260029091015481830152865190951684529190528120548251610bac919061430e565b85546040516323b872dd60e01b81523360048201526001600160a01b038781166024830152604482018490529293509116906323b872dd906064016020604051808303816000875af1158015610c06573d6000803e3d6000fd5b505050506040513d601f19601f82011682018060405250810190610c2a9190614321565b610c685760405162461bcd60e51b815260206004820152600f60248201526e151c985b9cd9995c8819985a5b1959608a1b6044820152606401610aa9565b60608301516040805160808101825260ff8a1681528451602080830191909152850151600092820190610c9b904261433e565b8152602001898152509050808760040160008c815260200190815260200160002060008201518160000160006101000a81548160ff021916908360ff160217905550602082015181600101556040820151816002015560608201518160030155905050856001600160a01b03168a336001600160a01b03167f1b2bd648de2b69d0b405d157e36eb4660a343e8923bb8cec3f9907d94601e05e8c856020015186604001518a60400151604051610d6f949392919060ff94909416845260208401929092526040830152606082015260800190565b60405180910390a4818814610f215787600003610db75760008281526007880160205260408082208290555183918c913391600080516020614c0d83398151915291a4610f21565b6001870154604051634f558e7960e01b8152600481018a90526001600160a01b0390911690634f558e7990602401602060405180830381865afa158015610e02573d6000803e3d6000fd5b505050506040513d601f19601f82011682018060405250810190610e269190614321565b15610f055760008881526007880160205260409020548015610ec157610e4b89612b35565b15610e6c57604051636ad4e94560e11b8152600481018a9052602401610aa9565b6000838152600789016020908152604080832083905583835260048b019091528120600301558881610e9d81611a33565b6001600160a01b0316600080516020614c0d83398151915260405160405180910390a45b60008981526007890160205260408082208d9055518a918d9133917fcdd382de08d657468c7c74f0f59b15bf19da9a76903582c26c18756581cc948791a450610f21565b604051634654927160e11b815260048101899052602401610aa9565b50505050505050505050565b600080610f38612a7b565b6001810154604051634f558e7960e01b8152600481018690529192506001600160a01b031690634f558e7990602401602060405180830381865afa158015610f84573d6000803e3d6000fd5b505050506040513d601f19601f82011682018060405250810190610fa89190614321565b610fb55750600092915050565b600083815260078201602052604081205490819003610fd8575060009392505050565b600081815260048301602081815260408084208151608081018352815460ff168152600182015481850152600282015492810183905260039091015460608201529385905291905242111561103257506000949350505050565b5160ff166000908152600390920160205250604090206002015492915050565b600061105c612a7b565b6001600160a01b03808516600090815260068301602052604090205491925016806111045781546040516001600160a01b0390911690859061109d90613e35565b6001600160a01b03928316815291166020820152604001604051809103906000f0801580156110d0573d6000803e3d6000fd5b506001600160a01b038581166000908152600685016020526040902080546001600160a01b03191691831691909117905590505b60008381526004838101602090815260408084208151608081018352815460ff168152600182015481850190815260028301548285015260039092015460608201528886526005880190935293819020549351905163e17abe6160e01b8152928301526001600160a01b0384811660248401529092169063e17abe6190604401600060405180830381600087803b15801561119e57600080fd5b505af11580156111b2573d6000803e3d6000fd5b5050506000858152600585016020526040902080546001600160a01b0319166001600160a01b038516179055506111ea868686612b6d565b805160ff166000908152600384016020908152604091829020600201548184015183519081529182018190529186916001600160a01b038a16917f75e161b3e824b114fc1a33274bd7091918dd4e639cede50b78b15a4eea956a21910160405180910390a38151602080840151604080860151815160ff909516855292840191909152820152606081018290526001600160a01b038085169187918916907f1b2bd648de2b69d0b405d157e36eb4660a343e8923bb8cec3f9907d94601e05e9060800160405180910390a450505050505050565b6000908152600080516020614c8d833981519152602052604090206001015490565b6112e981611a33565b6001600160a01b0316336001600160a01b03161461131d576040516333200a8b60e11b815260048101829052602401610aa9565b6000611327612a7b565b336000908152600682016020908152604080832054868452600485018352928190208151608081018352815460ff16815260018201549381019390935260028101549183018290526003015460608301529293506001600160a01b039091169142116113a9576040516359ee1d3560e11b815260048101859052602401610aa9565b6060810151156113e85760608101805160009081526007850160205260408082208290559151915186913391600080516020614c0d8339815191529190a45b60008481526004848101602052604091829020600101549151632e1a7d4d60e01b81529081018290526001600160a01b03841690632e1a7d4d90602401600060405180830381600087803b15801561143f57600080fd5b505af1158015611453573d6000803e3d6000fd5b50505060008681526004860160209081526040808320805460ff191681556001810184905560028082018590556003918201859055875160ff1685529089018352928190209092015482518581529182015287925033917f75e161b3e824b114fc1a33274bd7091918dd4e639cede50b78b15a4eea956a2191015b60405180910390a35050505050565b816114fb57604051631fe1e13d60e11b815260040160405180910390fd5b610a568282612bf2565b600080516020614c6d8339815191528215801561153a5750611525611b54565b6001600160a01b0316826001600160a01b0316145b156115ba5760008061154a612263565b90925090506001600160a01b03821615158061156c575065ffffffffffff8116155b8061157f57504265ffffffffffff821610155b156115a7576040516319ca5ebb60e01b815265ffffffffffff82166004820152602401610aa9565b5050805465ffffffffffff60a01b191681555b6115c48383612c0e565b505050565b60006115d3612a7b565b600101546001600160a01b0316919050565b6115c4838383604051806020016040528060008152506120f5565b61162460405180606001604052806000815260200160008152602001600081525090565b61162c612a7b565b60030160008360ff16815260200190815260200160002060405180606001604052908160008201548152602001600182015481526020016002820154815250509050919050565b7ff0c57e16840df040f15088dc2f81fe391c3923bec73e23a9662efc9c229c6a008054600160401b810460ff16159067ffffffffffffffff166000811580156116b95750825b905060008267ffffffffffffffff1660011480156116d65750303b155b9050811580156116e4575080155b156117025760405163f92ee8a960e01b815260040160405180910390fd5b845467ffffffffffffffff19166001178555831561172c57845460ff60401b1916600160401b1785555b6117396203f48033612c41565b6117836040518060400160405280600c81526020016b44494d4f205374616b696e6760a01b815250604051806040016040528060048152602001634453544b60e01b815250612c53565b61178b612c65565b6117b57f189ab7a9244df0848122154315af71fe140f3db0fe014031783b0946b8c9d2e333612c6d565b5060006117c0612a7b565b80546001600160a01b03808b166001600160a01b031992831617835560018084018054928c1692909316919091179091556040805160608082018352681b1ae4d6e2ef500000825262ed4e0060208084019182526103e884860190815260008080526003909801808352868920955186559251858801555160029485015584518084018652685150ae84a8cdf0000081526301e133808183019081526107d0828801908152888a52848452878a209251835590518289015551908501558451928301855268d8d726b7177a80000083526303c26700838201908152610bb8848701908152858952929091529390952090518155915192820192909255915191015550831561190857845460ff60401b19168555604051600181527fc7f505b2f371ae2175ee4913f4499e1f2633a7b5936321eed1cdaeb6115181d29060200160405180910390a15b50505050505050565b611919612ce4565b61192282612d72565b610a568282612d9c565b6000611936612a7b565b6001600160a01b0392831660009081526006919091016020526040902054909116919050565b6000611966612e59565b50600080516020614c4d83398151915290565b6000611983612a7b565b33600090815260069190910160205260409020546001600160a01b03169050806119c0576040516313669f8f60e01b815260040160405180910390fd5b6040516317066a5760e21b81526001600160a01b038381166004830152821690635c19a95c90602401600060405180830381600087803b158015611a0357600080fd5b505af1158015611a17573d6000803e3d6000fd5b505050505050565b6000611a2a81612b1e565b610a5682612ea2565b600061097382612a9f565b6000611a4981612b1e565b610a5682612f15565b611a806040518060800160405280600060ff1681526020016000815260200160008152602001600081525090565b611a88612a7b565b600092835260040160209081526040928390208351608081018552815460ff16815260018201549281019290925260028101549382019390935260039092015460608301525090565b6000600080516020614c2d8339815191526001600160a01b038316611b0c576040516322718ad960e21b815260006004820152602401610aa9565b6001600160a01b039092166000908152600390920160205250604090205490565b6000611b37612a7b565b60009283526005016020525060409020546001600160a01b031690565b600080516020614cad833981519152546001600160a01b031690565b6000611b7a611b54565b905090565b6000918252600080516020614c8d833981519152602090815260408084206001600160a01b0393909316845291905290205460ff1690565b7f80bb2b638cc20bc4d0a60d66940f3ab4a00c1d7b313497ca82fb0b4ab00793018054606091600080516020614c2d833981519152916109b2906142be565b6000611c00612a7b565b3360009081526006820160209081526040808320548151608081018352848152928301849052908201839052606082018390529293506001600160a01b0390921691819060005b86811015611e4e57878782818110611c6157611c61614351565b60209081029290920135600081815260048a0184526040908190208151608081018352815460ff1681526001820154958101959095526002810154918501919091526003015460608401529550909250611cbc905084611a33565b6001600160a01b0316336001600160a01b031614611cf0576040516333200a8b60e11b815260048101859052602401610aa9565b81604001514211611d17576040516359ee1d3560e11b815260048101859052602401610aa9565b606082015115611d565760608201805160009081526007880160205260408082208290559151915186913391600080516020614c0d8339815191529190a45b60008481526004878101602052604091829020600101549151632e1a7d4d60e01b81529081018290529093506001600160a01b03861690632e1a7d4d90602401600060405180830381600087803b158015611db057600080fd5b505af1158015611dc4573d6000803e3d6000fd5b50505060008581526004880160209081526040808320805460ff191681556001810184905560028082018590556003918201859055875160ff168552908b018352928190209092015482518781529182015286925033917f75e161b3e824b114fc1a33274bd7091918dd4e639cede50b78b15a4eea956a21910160405180910390a3600101611c47565b5050505050505050565b600080516020614cad83398151915254600090600160d01b900465ffffffffffff16600080516020614c6d8339815191528115801590611ea057504265ffffffffffff831610155b611eac57600080611ec2565b6001810154600160a01b900465ffffffffffff16825b92509250509091565b610a56338383612f85565b611edf82611a33565b6001600160a01b0316336001600160a01b031614611f13576040516333200a8b60e11b815260048101839052602401610aa9565b6000611f1d612a7b565b6001810154604051634f558e7960e01b8152600481018590529192506001600160a01b031690634f558e7990602401602060405180830381865afa158015611f69573d6000803e3d6000fd5b505050506040513d601f19601f82011682018060405250810190611f8d9190614321565b611fad57604051634654927160e11b815260048101839052602401610aa9565b6000828152600782016020526040902054808403611fe157604051636ad4e94560e11b815260048101849052602401610aa9565b801561205457611ff083612b35565b1561201157604051636ad4e94560e11b815260048101849052602401610aa9565b6000818152600483016020526040812060030155828161203081611a33565b6001600160a01b0316600080516020614c0d83398151915260405160405180910390a45b6000848152600483016020526040902060030154801561209b57600081815260078401602052604080822082905551829187913391600080516020614c0d83398151915291a45b6000848152600784016020908152604080832088905587835260048601909152808220600301869055518591879133917fcdd382de08d657468c7c74f0f59b15bf19da9a76903582c26c18756581cc948791a45050505050565b612100848484611052565b61210c84848484613036565b50505050565b600061211c612a7b565b600092835260070160205250604090205490565b606061213b82612a9f565b50600061215360408051602081019091526000815290565b90506000815111612173576040518060200160405280600081525061219e565b8061217d8461315f565b60405160200161218e929190614367565b6040516020818303038152906040525b9392505050565b600080516020614cad83398151915254600090600080516020614c6d83398151915290600160d01b900465ffffffffffff1680158015906121ed57504265ffffffffffff8216105b612207578154600160d01b900465ffffffffffff1661221c565b6001820154600160a01b900465ffffffffffff165b9250505090565b600061222d612263565b509050336001600160a01b0382161461225b57604051636116401160e11b8152336004820152602401610aa9565b610a6d6131f2565b600080516020614c6d833981519152546001600160a01b03811691600160a01b90910465ffffffffffff1690565b816122af57604051631fe1e13d60e11b815260040160405180910390fd5b610a56828261328f565b60006122c481612b1e565b610a6d6132ab565b60006122d6612a7b565b60008381526007820160209081526040808320548084526005850190925290912054919250906001600160a01b031680612323576040516313669f8f60e01b815260040160405180910390fd5b60018301546040516331a9108f60e11b8152600481018690526001600160a01b0390911690636352211e90602401602060405180830381865afa92505050801561238a575060408051601f3d908101601f1916820190925261238791810190614396565b60015b6123aa57604051634654927160e11b815260048101859052602401610aa9565b336001600160a01b038216148015906124365750816001600160a01b0316635ebaf1db6040518163ffffffff1660e01b8152600401602060405180830381865afa1580156123fc573d6000803e3d6000fd5b505050506040513d601f19601f820116820180604052508101906124209190614396565b6001600160a01b0316336001600160a01b031614155b1561245d5760405163da47202360e01b815233600482015260248101869052604401610aa9565b50600084815260078401602090815260408083208390558483526004860190915280822060030182905551859184913391600080516020614c0d83398151915291a450505050565b60006124af612a7b565b9050600260ff841611156124db5760405163064fa3d560e41b815260ff84166004820152602401610aa9565b600081600201600081546124ee906143b3565b918290555060ff851660008181526003850160209081526040808320815160608101835281548152600182015481850190815260029092015481840152825160808101845295865280519386019390935251949550909391929190820190612556904261433e565b815260209081018790523360009081526006870190915260409020549091506001600160a01b0316806126005784546040516001600160a01b0390911690339061259f90613e35565b6001600160a01b03928316815291166020820152604001604051809103906000f0801580156125d2573d6000803e3d6000fd5b50336000908152600687016020526040902080546001600160a01b0319166001600160a01b03831617905590505b6000848152600586016020908152604080832080546001600160a01b0319166001600160a01b038681169182179092556004808b018552948390208751815460ff191660ff90911617815593870151600185015586830151600285015560608701516003909401939093558854875192516323b872dd60e01b815233958101959095526024850193909352604484019190915216906323b872dd906064016020604051808303816000875af11580156126bd573d6000803e3d6000fd5b505050506040513d601f19601f820116820180604052508101906126e19190614321565b61271f5760405162461bcd60e51b815260206004820152600f60248201526e151c985b9cd9995c8819985a5b1959608a1b6044820152606401610aa9565b61272933856132b6565b825160408084015181860151825160ff8c16815260208101949094529183015260608201526001600160a01b03821690859033907f1b2bd648de2b69d0b405d157e36eb4660a343e8923bb8cec3f9907d94601e05e9060800160405180910390a48515611908576001850154604051634f558e7960e01b8152600481018890526001600160a01b0390911690634f558e7990602401602060405180830381865afa1580156127db573d6000803e3d6000fd5b505050506040513d601f19601f820116820180604052508101906127ff9190614321565b61281f57604051634654927160e11b815260048101879052602401610aa9565b600086815260078601602052604090205480156128a35761283f87612b35565b1561286057604051636ad4e94560e11b815260048101889052602401610aa9565b6000818152600487016020526040812060030155868161287f81611a33565b6001600160a01b0316600080516020614c0d83398151915260405160405180910390a45b6000878152600787016020526040808220879055518891879133917fcdd382de08d657468c7c74f0f59b15bf19da9a76903582c26c18756581cc948791a45050505050505050565b6001600160a01b0391821660009081527f80bb2b638cc20bc4d0a60d66940f3ab4a00c1d7b313497ca82fb0b4ab00793056020908152604080832093909416825291909152205460ff1690565b61294181611a33565b6001600160a01b0316336001600160a01b031614612975576040516333200a8b60e11b815260048101829052602401610aa9565b600061297f612a7b565b600083815260048201602090815260408083208151608081018352815460ff16808252600180840154838701526002808501548487015260039485015460608086019190915292885293880186528487208551928301865280548352908101549582018690529092015492820192909252939450929190612a00904261433e565b600086815260048601602090815260409182902060020183905584820151825184815291820152919250869133917f8dcdca9a89d1a6ecc036e8a86410ec8f3455be8c3cf5cb51147931e819357de091016114ce565b60006001600160e01b031982166318a4c3c360e11b14806109735750610973826132d0565b7f85da7fe116410007e8db80000b74f31d3498f18fcacb661af6fab05d889a710090565b600080612aab836132f5565b90506001600160a01b03811661097357604051637e27328960e01b815260048101849052602401610aa9565b60009081527f80bb2b638cc20bc4d0a60d66940f3ab4a00c1d7b313497ca82fb0b4ab007930460205260409020546001600160a01b031690565b6115c4838383600161332f565b610a6d8133613445565b612b3360008061347e565b565b600080612b40612a7b565b60009384526007810160209081526040808620548652600490920190529092206002015442111592915050565b6001600160a01b038216612b9757604051633250574960e11b815260006004820152602401610aa9565b6000612ba4838333613559565b9050836001600160a01b0316816001600160a01b03161461210c576040516364283d7b60e01b81526001600160a01b0380861660048301526024820184905282166044820152606401610aa9565b612bfb826112be565b612c0481612b1e565b61210c8383612c6d565b6001600160a01b0381163314612c375760405163334bd91960e11b815260040160405180910390fd5b6115c48282613663565b612c496136bc565b610a568282613705565b612c5b6136bc565b610a56828261376e565b612b336136bc565b6000600080516020614c6d83398151915283612cd2576000612c8d611b54565b6001600160a01b031614612cb457604051631fe1e13d60e11b815260040160405180910390fd5b6001810180546001600160a01b0319166001600160a01b0385161790555b612cdc848461379f565b949350505050565b306001600160a01b037f0000000000000000000000000000000000000000000000000000000000000000161480612d5457507f00000000000000000000000000000000000000000000000000000000000000006001600160a01b0316612d48613844565b6001600160a01b031614155b15612b335760405163703e46dd60e11b815260040160405180910390fd5b7f189ab7a9244df0848122154315af71fe140f3db0fe014031783b0946b8c9d2e3610a5681612b1e565b816001600160a01b03166352d1902d6040518163ffffffff1660e01b8152600401602060405180830381865afa925050508015612df6575060408051601f3d908101601f19168201909252612df3918101906143cc565b60015b612e1e57604051634c9c8ce360e01b81526001600160a01b0383166004820152602401610aa9565b600080516020614c4d8339815191528114612e4f57604051632a87526960e21b815260048101829052602401610aa9565b6115c4838361385a565b306001600160a01b037f00000000000000000000000000000000000000000000000000000000000000001614612b335760405163703e46dd60e11b815260040160405180910390fd5b6000612eac6121a5565b612eb5426138b0565b612ebf91906143e5565b9050612ecb82826138e7565b60405165ffffffffffff821681526001600160a01b038316907f3377dc44241e779dd06afab5b788a35ca5f3b778836e2990bdb26a2a4b2e5ed69060200160405180910390a25050565b6000612f2082613974565b612f29426138b0565b612f3391906143e5565b9050612f3f828261347e565b6040805165ffffffffffff8085168252831660208201527ff1038c18cf84a56e432fdbfaf746924b7ea511dfe03a6506a0ceba4888788d9b910160405180910390a15050565b600080516020614c2d8339815191526001600160a01b038316612fc657604051630b61174360e31b81526001600160a01b0384166004820152602401610aa9565b6001600160a01b038481166000818152600584016020908152604080832094881680845294825291829020805460ff191687151590811790915591519182527f17307eab39ab6107e8899845ad3d59bd9653f200f220920489ca2b5937696c31910160405180910390a350505050565b6001600160a01b0383163b1561210c57604051630a85bd0160e11b81526001600160a01b0384169063150b7a0290613078903390889087908790600401614403565b6020604051808303816000875af19250505080156130b3575060408051601f3d908101601f191682019092526130b091810190614440565b60015b61311c573d8080156130e1576040519150601f19603f3d011682016040523d82523d6000602084013e6130e6565b606091505b50805160000361311457604051633250574960e11b81526001600160a01b0385166004820152602401610aa9565b805181602001fd5b6001600160e01b03198116630a85bd0160e11b1461315857604051633250574960e11b81526001600160a01b0385166004820152602401610aa9565b5050505050565b6060600061316c836139bc565b600101905060008167ffffffffffffffff81111561318c5761318c614027565b6040519080825280601f01601f1916602001820160405280156131b6576020820181803683370190505b5090508181016020015b600019016f181899199a1a9b1b9c1cb0b131b232b360811b600a86061a8153600a85049450846131c057509392505050565b600080516020614c6d83398151915260008061320c612263565b915091506132218165ffffffffffff16151590565b158061323557504265ffffffffffff821610155b1561325d576040516319ca5ebb60e01b815265ffffffffffff82166004820152602401610aa9565b61326f600061326a611b54565b613663565b5061327b600083612c6d565b505081546001600160d01b03191690915550565b613298826112be565b6132a181612b1e565b61210c8383613663565b612b336000806138e7565b610a56828260405180602001604052806000815250613a94565b60006001600160e01b03198216637965db0b60e01b1480610973575061097382613aab565b60009081527f80bb2b638cc20bc4d0a60d66940f3ab4a00c1d7b313497ca82fb0b4ab007930260205260409020546001600160a01b031690565b600080516020614c2d833981519152818061335257506001600160a01b03831615155b1561341457600061336285612a9f565b90506001600160a01b0384161580159061338e5750836001600160a01b0316816001600160a01b031614155b80156133a1575061339f81856128eb565b155b156133ca5760405163a9fbf51f60e01b81526001600160a01b0385166004820152602401610aa9565b82156134125784866001600160a01b0316826001600160a01b03167f8c5be1e5ebec7d5bd14f71427d1e84f3dd0314c0f7b2291e5b200ac8c7c3b92560405160405180910390a45b505b600093845260040160205250506040902080546001600160a01b0319166001600160a01b0392909216919091179055565b61344f8282611b7f565b610a565760405163e2517d3f60e01b81526001600160a01b038216600482015260248101839052604401610aa9565b600080516020614cad83398151915254600080516020614c6d83398151915290600160d01b900465ffffffffffff16801561351b574265ffffffffffff821610156134f157600182015482546001600160d01b0316600160a01b90910465ffffffffffff16600160d01b0217825561351b565b6040517f2b1fa2edafe6f7b9e97c1a9e0c3660e645beb2dcaa2d45bdbf9beaf5472e1ec590600090a15b5060010180546001600160a01b0316600160a01b65ffffffffffff948516026001600160d01b031617600160d01b9290931691909102919091179055565b6000600080516020614c2d83398151915281613574856132f5565b90506001600160a01b0384161561359057613590818587613afb565b6001600160a01b038116156135d0576135ad60008660008061332f565b6001600160a01b0381166000908152600383016020526040902080546000190190555b6001600160a01b03861615613601576001600160a01b03861660009081526003830160205260409020805460010190555b600085815260028301602052604080822080546001600160a01b0319166001600160a01b038a811691821790925591518893918516917fddf252ad1be2c89b69c2b068fc378daa952ba7f163c4a11628f55a4df523b3ef91a495945050505050565b6000600080516020614c6d8339815191528315801561369a5750613685611b54565b6001600160a01b0316836001600160a01b0316145b156136b2576001810180546001600160a01b03191690555b612cdc8484613b5f565b7ff0c57e16840df040f15088dc2f81fe391c3923bec73e23a9662efc9c229c6a0054600160401b900460ff16612b3357604051631afcd79f60e31b815260040160405180910390fd5b61370d6136bc565b600080516020614c6d8339815191526001600160a01b03821661374657604051636116401160e11b815260006004820152602401610aa9565b80546001600160d01b0316600160d01b65ffffffffffff85160217815561210c600083612c6d565b6137766136bc565b600080516020614c2d8339815191528061379084826144a4565b506001810161210c83826144a4565b6000600080516020614c8d8339815191526137ba8484611b7f565b61383a576000848152602082815260408083206001600160a01b03871684529091529020805460ff191660011790556137f03390565b6001600160a01b0316836001600160a01b0316857f2f8788117e7eff1d82e926ec794901d17c78024a50270940304540a733656f0d60405160405180910390a46001915050610973565b6000915050610973565b6000600080516020614c4d833981519152610983565b61386382613bdb565b6040516001600160a01b038316907fbc7cd75a20ee27fd9adebab32041f755214dbc6bffa90cc0225b39da2e5c2d3b90600090a28051156138a8576115c48282613c40565b610a56613cb6565b600065ffffffffffff8211156138e3576040516306dfcc6560e41b81526030600482015260248101839052604401610aa9565b5090565b600080516020614c6d8339815191526000613900612263565b835465ffffffffffff8616600160a01b026001600160d01b03199091166001600160a01b03881617178455915061394090508165ffffffffffff16151590565b1561210c576040517f8886ebfc4259abdbc16601dd8fb5678e54878f47b3c34836cfc51154a960510990600090a150505050565b60008061397f6121a5565b90508065ffffffffffff168365ffffffffffff16116139a7576139a28382614563565b61219e565b61219e65ffffffffffff841662069780613cd5565b60008072184f03e93ff9f4daa797ed6e38ed64bf6a1f0160401b83106139fb5772184f03e93ff9f4daa797ed6e38ed64bf6a1f0160401b830492506040015b6d04ee2d6d415b85acef81000000008310613a27576d04ee2d6d415b85acef8100000000830492506020015b662386f26fc100008310613a4557662386f26fc10000830492506010015b6305f5e1008310613a5d576305f5e100830492506008015b6127108310613a7157612710830492506004015b60648310613a83576064830492506002015b600a83106109735760010192915050565b613a9e8383613ceb565b6115c46000848484613036565b60006001600160e01b031982166380ac58cd60e01b1480613adc57506001600160e01b03198216635b5e139f60e01b145b8061097357506301ffc9a760e01b6001600160e01b0319831614610973565b613b06838383613d50565b6115c4576001600160a01b038316613b3457604051637e27328960e01b815260048101829052602401610aa9565b60405163177e802f60e01b81526001600160a01b038316600482015260248101829052604401610aa9565b6000600080516020614c8d833981519152613b7a8484611b7f565b1561383a576000848152602082815260408083206001600160a01b0387168085529252808320805460ff1916905551339287917ff6391f5c32d9c69d2a47ea670b442974b53935d1edc7fd64eb21e047a839171b9190a46001915050610973565b806001600160a01b03163b600003613c1157604051634c9c8ce360e01b81526001600160a01b0382166004820152602401610aa9565b600080516020614c4d83398151915280546001600160a01b0319166001600160a01b0392909216919091179055565b6060600080846001600160a01b031684604051613c5d9190614581565b600060405180830381855af49150503d8060008114613c98576040519150601f19603f3d011682016040523d82523d6000602084013e613c9d565b606091505b5091509150613cad858383613db5565b95945050505050565b3415612b335760405163b398979f60e01b815260040160405180910390fd5b6000818310613ce4578161219e565b5090919050565b6001600160a01b038216613d1557604051633250574960e11b815260006004820152602401610aa9565b6000613d2383836000613559565b90506001600160a01b038116156115c4576040516339e3563760e11b815260006004820152602401610aa9565b60006001600160a01b03831615801590612cdc5750826001600160a01b0316846001600160a01b03161480613d8a5750613d8a84846128eb565b80612cdc5750826001600160a01b0316613da383612ad7565b6001600160a01b031614949350505050565b606082613dc5576139a282613e0c565b8151158015613ddc57506001600160a01b0384163b155b15613e0557604051639996b31560e01b81526001600160a01b0385166004820152602401610aa9565b508061219e565b805115613e1c5780518082602001fd5b604051630a12f52160e11b815260040160405180910390fd5b61066f8061459e83390190565b6001600160e01b031981168114610a6d57600080fd5b600060208284031215613e6a57600080fd5b813561219e81613e42565b60005b83811015613e90578181015183820152602001613e78565b50506000910152565b60008151808452613eb1816020860160208601613e75565b601f01601f19169290920160200192915050565b60208152600061219e6020830184613e99565b600060208284031215613eea57600080fd5b5035919050565b6001600160a01b0381168114610a6d57600080fd5b60008060408385031215613f1957600080fd5b8235613f2481613ef1565b946020939093013593505050565b803560ff81168114613f4357600080fd5b919050565b600080600060608486031215613f5d57600080fd5b83359250613f6d60208501613f32565b929592945050506040919091013590565b600080600060608486031215613f9357600080fd5b8335613f9e81613ef1565b92506020840135613f6d81613ef1565b60008060408385031215613fc157600080fd5b823591506020830135613fd381613ef1565b809150509250929050565b600060208284031215613ff057600080fd5b61219e82613f32565b6000806040838503121561400c57600080fd5b823561401781613ef1565b91506020830135613fd381613ef1565b634e487b7160e01b600052604160045260246000fd5b600082601f83011261404e57600080fd5b813567ffffffffffffffff81111561406857614068614027565b604051601f8201601f19908116603f0116810167ffffffffffffffff8111828210171561409757614097614027565b6040528181528382016020018510156140af57600080fd5b816020850160208301376000918101602001919091529392505050565b600080604083850312156140df57600080fd5b82356140ea81613ef1565b9150602083013567ffffffffffffffff81111561410657600080fd5b6141128582860161403d565b9150509250929050565b60006020828403121561412e57600080fd5b813561219e81613ef1565b60006020828403121561414b57600080fd5b813565ffffffffffff8116811461219e57600080fd5b6000806020838503121561417457600080fd5b823567ffffffffffffffff81111561418b57600080fd5b8301601f8101851361419c57600080fd5b803567ffffffffffffffff8111156141b357600080fd5b8560208260051b84010111156141c857600080fd5b6020919091019590945092505050565b8015158114610a6d57600080fd5b600080604083850312156141f957600080fd5b823561420481613ef1565b91506020830135613fd3816141d8565b6000806040838503121561422757600080fd5b50508035926020909101359150565b6000806000806080858703121561424c57600080fd5b843561425781613ef1565b9350602085013561426781613ef1565b925060408501359150606085013567ffffffffffffffff81111561428a57600080fd5b6142968782880161403d565b91505092959194509250565b600080604083850312156142b557600080fd5b613f2483613f32565b600181811c908216806142d257607f821691505b6020821081036142f257634e487b7160e01b600052602260045260246000fd5b50919050565b634e487b7160e01b600052601160045260246000fd5b81810381811115610973576109736142f8565b60006020828403121561433357600080fd5b815161219e816141d8565b80820180821115610973576109736142f8565b634e487b7160e01b600052603260045260246000fd5b60008351614379818460208801613e75565b83519083019061438d818360208801613e75565b01949350505050565b6000602082840312156143a857600080fd5b815161219e81613ef1565b6000600182016143c5576143c56142f8565b5060010190565b6000602082840312156143de57600080fd5b5051919050565b65ffffffffffff8181168382160190811115610973576109736142f8565b6001600160a01b038581168252841660208201526040810183905260806060820181905260009061443690830184613e99565b9695505050505050565b60006020828403121561445257600080fd5b815161219e81613e42565b601f8211156115c457806000526020600020601f840160051c810160208510156144845750805b601f840160051c820191505b818110156131585760008155600101614490565b815167ffffffffffffffff8111156144be576144be614027565b6144d2816144cc84546142be565b8461445d565b6020601f82116001811461450657600083156144ee5750848201515b600019600385901b1c1916600184901b178455613158565b600084815260208120601f198516915b828110156145365787850151825560209485019460019092019101614516565b50848210156145545786840151600019600387901b60f8161c191681555b50505050600190811b01905550565b65ffffffffffff8281168282160390811115610973576109736142f8565b60008251614593818460208701613e75565b919091019291505056fe60e060405234801561001057600080fd5b5060405161066f38038061066f83398101604081905261002f91610066565b336080526001600160a01b0391821660a0521660c052610099565b80516001600160a01b038116811461006157600080fd5b919050565b6000806040838503121561007957600080fd5b6100828361004a565b91506100906020840161004a565b90509250929050565b60805160a05160c0516105726100fd6000396000818160d70152818161019a01526102b6015260008181606c015281816101c90152818161031801526103e801526000818160fe0152818161013e01528181610282015261038201526105726000f3fe608060405234801561001057600080fd5b50600436106100625760003560e01c80630524f28c146100675780632e1a7d4d146100aa5780635c19a95c146100bf5780635ebaf1db146100d2578063682461f5146100f9578063e17abe6114610120575b600080fd5b61008e7f000000000000000000000000000000000000000000000000000000000000000081565b6040516001600160a01b03909116815260200160405180910390f35b6100bd6100b8366004610497565b610133565b005b6100bd6100cd3660046104cc565b610277565b61008e7f000000000000000000000000000000000000000000000000000000000000000081565b61008e7f000000000000000000000000000000000000000000000000000000000000000081565b6100bd61012e3660046104ee565b610377565b336001600160a01b037f000000000000000000000000000000000000000000000000000000000000000016146101835760405163472511eb60e11b81523360048201526024015b60405180910390fd5b60405163a9059cbb60e01b81526001600160a01b037f000000000000000000000000000000000000000000000000000000000000000081166004830152602482018390527f0000000000000000000000000000000000000000000000000000000000000000169063a9059cbb906044016020604051808303816000875af1158015610212573d6000803e3d6000fd5b505050506040513d601f19601f82011682018060405250810190610236919061051a565b6102745760405162461bcd60e51b815260206004820152600f60248201526e151c985b9cd9995c8819985a5b1959608a1b604482015260640161017a565b50565b336001600160a01b037f000000000000000000000000000000000000000000000000000000000000000016148015906102d95750336001600160a01b037f00000000000000000000000000000000000000000000000000000000000000001614155b156102f95760405163472511eb60e11b815233600482015260240161017a565b6040516317066a5760e21b81526001600160a01b0382811660048301527f00000000000000000000000000000000000000000000000000000000000000001690635c19a95c90602401600060405180830381600087803b15801561035c57600080fd5b505af1158015610370573d6000803e3d6000fd5b5050505050565b336001600160a01b037f000000000000000000000000000000000000000000000000000000000000000016146103c25760405163472511eb60e11b815233600482015260240161017a565b60405163a9059cbb60e01b81526001600160a01b038281166004830152602482018490527f0000000000000000000000000000000000000000000000000000000000000000169063a9059cbb906044016020604051808303816000875af1158015610431573d6000803e3d6000fd5b505050506040513d601f19601f82011682018060405250810190610455919061051a565b6104935760405162461bcd60e51b815260206004820152600f60248201526e151c985b9cd9995c8819985a5b1959608a1b604482015260640161017a565b5050565b6000602082840312156104a957600080fd5b5035919050565b80356001600160a01b03811681146104c757600080fd5b919050565b6000602082840312156104de57600080fd5b6104e7826104b0565b9392505050565b6000806040838503121561050157600080fd5b82359150610511602084016104b0565b90509250929050565b60006020828403121561052c57600080fd5b815180151581146104e757600080fdfea26469706673582212207cfa61ce8f597b3f07564998a26d92ab9a973eb220e33b7a5802a7ae3ce6b59764736f6c634300081b00332c083deb67c92daa9b9ba680f4a657ac6cf0226e2be105c23b1497d0fdc0697780bb2b638cc20bc4d0a60d66940f3ab4a00c1d7b313497ca82fb0b4ab0079300360894a13ba1a3210667c828492db98dca3e2076cc3735a920a3ca505d382bbceef3dac4538c82c8ace4063ab0acd2d15cdb5883aa1dff7c2673abb3d869840002dd7bc7dec4dceedda775e58dd541e08a116c6c53815c0bd028192f7b626800eef3dac4538c82c8ace4063ab0acd2d15cdb5883aa1dff7c2673abb3d8698401a26469706673582212200aa7333e5bfa2b451d7b2c293a4071fe4d7d8911792a0c16d8efed73e202ccd564736f6c634300081b0033",
  "linkReferences": {},
  "deployedLinkReferences": {}
}